:020000040800F2
:100000000050002065040008AB040008AD0400089F
:10001000AF040008B1040008B304000800000000A9
:10002000000000000000000000000000B50400080F
:10003000B704000800000000B90400081D0500080E
:10004000BF040008C1040008C3040008C504000878
:10005000C7040008C9040008CB040008CD04000848
:100060006D020008D1040008D3040008D50400087C
:10007000D7040008D9040008DB040008DD040008E8
:10008000DF040008E1040008C1010008E5040008DD
:10009000D1090008E9040008EB040008ED04000899
:1000A000EF040008F1040008F3040008F504000858
:1000B000F7040008F904000855020008FD040008D0
:1000C000FF040008010500080305000805050008F5
:1000D00007050008090500080B0500080D050008C4
:1000E0000F050008110500081305000810B5054CA0
:1000F000237833B9044B13B10448AFF300800123D4
:10010000237010BD78000020000000009419000842
:10011000084B10B51BB108490848AFF300800848E8
:10012000036803B910BD074B002BFBD0BDE810409E
:10013000184700BF000000007C0000209419000850
:100140007800002000000000154B002B08BF134B67
:100150009D46A3F5803A00218B460F461348144A6A
:10016000121A01F081FB0F4B002B00D098470E4B69
:10017000002B00D098470020002104000D000D48FE
:10018000002802D00C48AFF3008001F047FB2000AC
:10019000290000F07BF801F02DFB00BF00000800F3
:1001A0000050002000000000000000007800002047
:1001B0003C0200200000000000000000704700BF6B
:1001C000F0B41E4B1E491F48DC6C0B6802680133FB
:1001D0002244B3F5007F02600B6001D0F0BC704791
:1001E000194B1B68012B24D0022B15D1174B184E2D
:1001F0001D6832681544B5F58D7F144605D940F267
:100200001C571D681544BD4202D952421446326043
:100210001A6814441C6004E0D20A0C4B02F21B1250
:100220001A6000224FF4FA6402600A601C60F0BC9D
:100230007047064B4FF44A721A60F2E700240140FF
:100240009C00002094000020A400002098000020C2
:1002500000000020034B0021034A196112681A6450
:10026000704700BF0008004098000020054B064A78
:1002700010B4002010240421DC60D860516110BC4F
:10028000704700BF00080140000401402DE9F84319
:1002900000F074FB62B640F21B122849284B8946D5
:1002A00028481A608368284A43F001038360136872
:1002B000264C43F00103264813602668D0F800E07E
:1002C000244D254C254F4FF000584FF4005CA0689A
:1002D00000F0030086420DD00A680B68FA329A4299
:1002E00003D230BF0B689A42FBD3A36803F0030329
:1002F00098421CD02B68012B16D0022B11D10B6811
:1003000073450CD3D9F80020BB6802F57A7E13F44C
:10031000005F14BF4FF000534FF400533B6130BFF8
:10032000D5E7C7F810C0FAE7C7F81080F7E7C3436E
:1003300003F0030306462B60DCE700BFCC0000207F
:100340009800002000240140000800400400002024
:10035000A0000020A400002000080140001001407F
:1003600070B5134888B003784178591A11F07F01AD
:1003700019D0202928BF202100244278437802F098
:100380007F0202449578661C08AA22440133F4B225
:10039000DBB28C4202F8205C4370EED3684600F07A
:1003A000B1FA08B070BD084600F0ACFA08B070BDF4
:1003B000D00000202DE9F04100F078FAC0B200280A
:1003C0003BD0254D2B78C3F12001C9B2884236D8E5
:1003D0001846DFF88C8089B2204F384400F07AFA52
:1003E000C0B2461EF6B22B7890B398F800000136E2
:1003F000002406E00A2A08D00134CBB2B4422B70A4
:1004000015D0FA5C591C0D2AF4D1CBB2191AC9B215
:10041000012905D93844FFF7D1FE2B780133DBB22F
:100420000134B442184688F800302B70E9D1834279
:1004300003D100232B7088F80030BDE8F081DFF88D
:100440002080002210462A7088F800202021C3E76F
:1004500098F80000EBE700BFC8000020A8000020CB
:10046000C90000200649074A074B9A42BEBF51F80F
:10047000040B42F8040BF8E704488047044800479F
:10048000A01900080000002078000020DD06000808
:10049000490100081F49204A002301E041F8043BBC
:1004A0009142FBD3FFF7F2FEFEE7FEE7FEE7FEE731
:1004B000FEE7FEE7FEE7FEE7FEE7FEE7FEE7FEE714
:1004C000FEE7FEE7FEE7FEE7FEE7FEE7FEE7FEE704
:1004D000FEE7FEE7FEE7FEE7FEE7FEE7FEE7FEE7F4
:1004E000FEE7FEE7FEE7FEE7FEE7FEE7FEE7FEE7E4
:1004F000FEE7FEE7FEE7FEE7FEE7FEE7FEE7FEE7D4
:10050000FEE7FEE7FEE7FEE7FEE7FEE7FEE7FEE7C3
:10051000FEE7FEE7780000203C020020024A136854
:1005200001331360704700BFCC00002010B4114AA3
:10053000114B9169114841F4007191619169302426
:1005400041F0040191615A684FF4802142F0200289
:100550005A609A6842F003029A605A6B42F00302B2
:100560005A631A6942F460621A6180F812430160AA
:1005700010BC7047001002400024014000E100E080
:1005800042F6192070B4184A184C9169184B41F082
:1005900009019161D1694FF4D04641F00401D16164
:1005A0002268012122F0F00242F0A00222601A68C3
:1005B000852542F080021A60DE611A6A002442F446
:1005C00080521A629D62D8621C645961DA680948D7
:1005D0000A434FF080440849DA6004604B6843F4F2
:1005E00000534B6070BC704700100240040C014087
:1005F0000008004000E100E0002004E010B41748CB
:10060000174B8269174942F0140282611A684FF44D
:10061000005422F00F0242F008021A601A69A0F595
:10062000803042F001021A611A6822F0F00242F0B2
:1006300080021A601A6942F002021A611A6822F4F2
:10064000702242F440321A600B6823F4700343F4C2
:1006500000130B60046110BC704700BF0010024023
:1006600000080140041001404FF6FF7010B4164915
:100670004FF08043CA69042442F00102CA619C62BF
:10068000D8621A68114942F001021A604B68104A98
:1006900043F400634B6091680E4B916099680E4A79
:1006A00021439960D9684FF4807441F00401D96006
:1006B0001968F02041F004011960146082F81E03EB
:1006C00082F8120310BC704700100240002004E0C2
:1006D000000001400004014000E100E0234A08B5A9
:1006E00011462348036823F0170343F01403036003
:1006F000136843F4803313600B681C4A9B03FBD5DB
:100700001146536823F4741323F4E06343F4E813AD
:1007100043F480635360136843F0807313600B6885
:10072000124A9801FBD51146536823F0030343F0A6
:10073000020353604B681A07FCD50E4B0E4A072183
:100740005A609A601960FFF7F1FEFFF757FFFFF755
:100750008BFFFFF715FF094B1A46996841F004011A
:10076000996093685B07FCD408BD00BF001002408D
:100770000020024010E000E03F1901000024014089
:1007800010B44088030A022B15D0032B0BD0012B89
:1007900002D0002010BC7047084B12240B600120CF
:1007A000148010BC7047C0B20228F2D8044B53F832
:1007B00020301C78F2E7034B4324EFE7C818000809
:1007C000DC1800081019000838B505460C4609B3B6
:1007D00001291DD1036808221B690621204698477C
:1007E0002B6820221B690621822098472B6808224B
:1007F0001B690321832098470E490F4A2B68A96380
:10080000EA6300221B6A114682209847204638BDC1
:10081000002038BD036883205B6998472B688220DD
:100820005B6998472B6801205B699847AC63EC6370
:10083000012038BD9D080008A508000810B40B78F9
:1008400083B003F06303212B04D00023184603B0C8
:1008500010BC70474B78212B14D0222B0CD0202BAE
:10086000F3D10D4A01F108041068012388609188D2
:100870009279A180A271E9E74B8853B98DF80730CE
:100880000123E3E7044A0723A0F85C3082650123D3
:10089000DCE70123DAE700BF0800002008B5FFF716
:1008A00089FD08BD08B5FFF75BFD08BD084B93F84F
:1008B0006220042A01D00020704793F86420072AA0
:1008C000F9D0022AF7D01B6801209B69184700BFA6
:1008D0005401002010B40A4B93F86240042C02D05B
:1008E000002010BC704793F86420072AF8D0022A31
:1008F000F6D01B680A46DB69014610BC0120184788
:100900005401002010B40A4B93F86240042C02D02A
:10091000002010BC704793F86420072AF8D0022A00
:10092000F6D01B680A461B6A014610BC8220184795
:100930005401002010B50E4C002023685B689847D6
:100940000C494FF080504A680B4B22F4702242F45D
:1009500000324A60086100BF013BFCD123680120DE
:100960005B689847236801209B68BDE810401847E2
:1009700054010020000801409F860100F8B50D4891
:100980000D4C0E490E4A0F4E0F4D104B4FF4801771
:1009900026602F600826E06078256160226184F877
:1009A0006060A4F85E50A3656365FFF7C3FF20464F
:1009B000F8BD00BFC9070008540100203D08000829
:1009C000810700085419000800E100E0BC01002084
:1009D000014800F0DDB900BF5401002038B50D46D4
:1009E000044603688878DB6898476B88002B14BF3F
:1009F0000323022384F8623038BD00BF70B505467A
:100A00000C46164680F86410D1B10B1F022B09D991
:100A100005EB84035B6993B1324621462846BDE865
:100A20007040184702F0070300EB83035B6B002B59
:100A3000EED0984705EB84035B69002BECD170BDC9
:100A40000368022285F8631085F8611080F862203F
:100A50001B6990F8602008469847034A2B686A6330
:100A6000DB6820469847D3E7E50A000838B590F8D8
:100A700063300446023B032B0BD8DFE803F00F0F73
:100A80000B028368002580F8635013B1416D9847CD
:100A9000A56038BD062380F8633038BD90F86050FB
:100AA000B0F85C200368954228BF154608462A46E0
:100AB0001B6AA16D9847B4F85C30A26D5B1B9BB2BA
:100AC0002A44A4F85C30A265002BE2D194F863308C
:100AD000022B03D094F860309D42DAD0042384F8CE
:100AE000633038BD0529F8B51546044670D006298F
:100AF00007D0042900D0F8BD1146BDE8F840FFF743
:100B0000B5BF0023466D80F8633083602368B4F876
:100B10005E20DB69314628469847082848D106F10F
:100B20000807A765F388A4F85C3096F90030002B1D
:100B300002DBF388002B7AD1B4F85E206368A765E6
:100B4000A4F85C203BB104F10802314620469847E6
:100B5000002840F08380337803F06302012A00F01C
:100B60008680C0F09D80022A22D17378012B00F08C
:100B7000E680C0F0EB80032B1AD1236801215B6A69
:100B80003079984733781B0640F1CA80F388B4F86F
:100B90005C209A42C0F0CF800222A4F85C3084F836
:100BA000632045F080012046BDE8F840FFF75EBFB6
:100BB000236801215B6A05F07F009847236845F0B0
:100BC00080005B6A01219847002384F86330F8BDF8
:100BD00090F86370466D012F15D097D3062FE7D19B
:100BE0000368A16D1046DB69B4F85E209847A368DE
:100BF000002584F86350002B3FF47DAF616D2046E3
:100C00009847A560F8BD0368B0F85C20DB69816D8A
:100C100028469847B4F85C3080B2984230D82CD03F
:100C2000A26D1B1A1044A4F85C30A065F8BDB4F89E
:100C30005E209A42BCD3012384F86330F8BD40F2B1
:100C4000FE3372889A4200F097802369002BAFD060
:100C500004F15C0204F1580130469847012800F085
:100C600093800228A4D1052384F86330F8BD7278FC
:100C7000002A9DD13272727285E706F108075BE7A0
:100C8000236839465B6A05F07F0098472368394638
:100C90005B6A45F080009847002384F86330F8BD14
:100CA0007278092A84D801A151F822F0EF0C0008CB
:100CB000B10B0008B10B0008B10B0008B10B000824
:100CC000D50C00083F0C0008B10B0008E70C000829
:100CD000F70C000823681B689847C2073FD42B4BCA
:100CE000A36033784FE794F8612032724BE700221B
:100CF0003272727247E7E368002B3FF459AFB7785E
:100D000020463946984701287FF452AF002F0CBF88
:100D10000323042384F8617084F86230337832E767
:100D2000236800221B6A45F080001146984705237E
:100D300084F86330F8BD032384F8633031E7236817
:100D400000215B6A3079984733781CE72368307953
:100D50009B6A9847002373723072337813E72368D5
:100D6000B078DB6898477388002B0CBF02230323FD
:100D700084F86230337806E7236838465B6B98471F
:100D8000A4F85C003378FEE63378FCE6DD09000861
:100D900003680149DB6A1847FD09000810B4002206
:100DA0004FF40071130103F1804303F5C0431C8825
:100DB000013214B1A14228BF21461B8913B19942C7
:100DC00028BF1946082AEDD100F12003994226BF19
:100DD000081A80B2002010BC704700BF00F0070363
:100DE0009B0003F1804303F5B8431A8802F4C06204
:100DF000B2F5806F14D000061A8812D402F4405263
:100E000072B11A8809BB02F4E062B2F5807F1A88D9
:100E10002FD022F070021204120C82F440521A8079
:100E2000704702F03002002AFAD01A88B9B902F4E9
:100E3000E062B2F5807F1A8823D022F4E0421204E7
:100E4000120C82F020021A80704792B282F4805213
:100E500022F4804222F0700292B21A80704792B25D
:100E600082F0100222F4E04222F0400292B21A8094
:100E7000704722F030021204120C82F441521A80A0
:100E8000704722F440521204120C82F030021A8091
:100E9000704700BF094A536823F4702328B9074AF2
:100EA00043F480230020536070474FF48051116158
:100EB000024A43F4003300205360704700080140A9
:100EC000024B40F08000A3F84C007047005C0040EB
:100ED0002DE9F041144600F00703D2074FEA8305DD
:100EE0004FEA031605F1804506F1804648BF0134FC
:100EF0000F4605F5B84506F5C04648BFA4B2062919
:100F00007BD8DFE801F05776337A7A7A040043F42D
:100F100080732B804FFA80F8B8F1000F2DDB3E2C48
:100F20007DD914F01F0204BF203CA2B26FEA8258A0
:100F30006FEA584802F120041FFA88F8A4B220464C
:100F4000FFF72CFF002867D0012F3081A6F80C8016
:100F50006AD0062F68D02B88012023F070031B0471
:100F60001B0C83F440532B80BDE8F0814FFA80F8CE
:100F70009BB2B8F1000F2B80D1DA2046FFF70EFFAD
:100F8000002849D00023012F3080B3805FD1204654
:100F9000FFF704FF00283FD000233081B3812B8866
:100FA000012023F440531B041B0C83F030032B80DF
:100FB000BDE8F0814FFA80F843F40073B8F1000FF8
:100FC0002B80DADB2046FFF7E9FE28B300233080D0
:100FD000B3802B88B8F1000F23F4E0434FEA0343BA
:100FE0004FEA134383F020032B8098DA0120BDE8F9
:100FF000F08143F480632B808CE74FFA80F843F450
:10100000C063B8F1000F2B80B7DB002987D12046E1
:10101000FFF7C4FE0028D9D10020BDE8F0814FEAD7
:1010200044281FFA88F88AE72046FFF7B7FE002811
:10103000F2D03080A6F804802B88012023F0300302
:101040001B041B0C83F441532B80BDE8F081062F59
:101050009DD0BEE747F2700100F00700830003F166
:10106000804303F5B8431A88000100F1804000F581
:10107000C04011400022198002818281028082805A
:10108000704700BF00F00700830003F1804303F5C1
:10109000B8431A88000102F45C5200F18040B2F5B6
:1010A000185F00F5C04011D00AD9B2F5445F0FD0E7
:1010B000B2F5505F22D11B885B0607D48088704749
:1010C000B2F5005F02D0B2F5085F17D18089704792
:1010D0001A8844F2400122F47E5222F03F02520468
:1010E000520C0AB18A42E6D11A8892B222F4E04246
:1010F00022F0700242F040021A80DCE700207047C4
:1011000070B400F00700850005F1804505F5B8458D
:101110002C88000104F45C5400F18043B4F5185F9E
:1011200003F5C04370D065D9B4F5445F2BD0B4F556
:10113000505F65D12888400440F194809E891D89C4
:10114000C6F30904A24228BF22466C0004F1804481
:1011500006F47C46104604F5C0449E81002A51D016
:10116000228801280A704DD0034605E034F8042F88
:10117000012B01F8022F45D0023B120A9BB24A70A4
:10118000002BF3D13EE0288844F2400420F47E5046
:1011900020F03F004004400C002800F08880A0426E
:1011A00000F085802888440640F18E809E891D8944
:1011B000C6F30904A24228BF22466C0004F1804411
:1011C00006F47C46104604F5C0449E81D2B12288C4
:1011D00001280A7016D0034605E034F8042F012BCD
:1011E00001F8022F0ED0023B120A9BB24A70002B6C
:1011F000F3D107E0B4F5005F06D0B4F5085F03D083
:101200004FF0FF3070BC70479C891E89C4F3090001
:10121000904228BF1046760006F1804604F47C44D4
:1012200006F5C0469C8188B1348801280C700DD029
:10123000034605E036F8044F012B01F8024F05D0B4
:10124000023B240A9BB24C70002BF3D12B889BB23B
:1012500083F4405323F4804323F070039BB22B802C
:1012600070BC70479E881D88C6F30904A24228BF3F
:1012700022466C0004F1804406F47C46104604F5D6
:10128000C0449E80002ABDD0228801280A70B9D0AF
:10129000034605E034F8042F012B01F8022FB1D0EA
:1012A000023B120A9BB24A70002BF3D1AAE72888AE
:1012B00080B220F4E04020F0700040F04000288030
:1012C000288844063FF572AF9E881D88C6F309043E
:1012D000A24228BF22466C0004F1804406F47C46FA
:1012E000104604F5C0449E80002A8BD02288012835
:1012F0000A7087D0034606E034F8042F012B01F86A
:10130000022F3FF47FAF023B120A9BB24A70002BC0
:10131000F2D177E7F0B500F00700860006F18046CD
:1013200006F5B8463488000100F1804304F4E66015
:10133000B0F5087F03F5C0437CD042D8202879D08F
:10134000B0F5907F40F0AD803088440440F1D98002
:101350001889012A4FEA400000F1804C9A810CF56F
:10136000C04C40F2FA80931EC3F34E0E7E4F7F4B6B
:1013700000EB8E0403442744881C10F8015C10F82D
:10138000024C043344EA052423F8084CBB4200F124
:101390000200F2D10EF101030CEB830C01EB4301CF
:1013A00002F0010313B10B78ACF80030338810461B
:1013B0009BB223F4E04323F0700343F48043338073
:1013C000F0BDB0F5866F32D13088400670D41889F0
:1013D000012A4FEA400000F1804E9A810EF5C04E7E
:1013E00040F2B980931EC3F34E075F4E5F4B00EB94
:1013F000870403442644881C10F8015C10F8024C52
:10140000043344EA052423F8084CB34200F10200F7
:10141000F2D17B1C0EEB830E01EB430102F00103C2
:10142000002B3CD00B781046AEF80030F0BDB0F584
:10143000C46F36D11888012A4FEA400000F1804C71
:101440009A800CF5C04C40F28A80931EC3F34E0E76
:10145000454F464B00EB8E04274403448C1C14F884
:10146000010C14F8025C043345EA002523F8085CFB
:10147000BB4204F10204F2D10EF101030CEB830C28
:1014800001EB430102F0010373B933889BB283F08F
:10149000300323F4E04323F040039BB23380104633
:1014A000F0BD4FF0FF30F0BD0B78ACF80030ECE74A
:1014B0001888012A4FEA400000F1804E9A800EF50C
:1014C000C04E48D9931EC3F34E07274E274B00EB5F
:1014D000870403442644881C10F8015C10F8024C71
:1014E000043344EA052423F8084CB34200F1020017
:1014F000F2D17B1C0EEB830E01EB430102F00103E2
:101500008EE71888012A4FEA400000F1804C9A804B
:101510000CF5C04C21D9931EC3F34E0E124F134B42
:1015200000EB8E0403442744881C10F8015C10F87B
:10153000024C043344EA052423F8084CBB4200F172
:101540000200F2D10EF101030CEB830C01EB43011D
:1015500002F0010326E7134662E7134622E713462B
:10156000002B92D0A0E700BF08600040046000405C
:10157000024BB3F84800C0F30A007047005C00401B
:10158000F0B44A4C0F46B4F844309BB2D9B21D04B3
:1015900001F00F023BD45E0529D500210D460E4611
:1015A000B4F8443023F480631B041B0CA4F84430CB
:1015B000A4F85010AC0004F1804404F5B84423882A
:1015C000290123F4786323F00F035B0401F18041C8
:1015D000013501F5C0415B0C082D23800E818E8101
:1015E0000E808E80E6D100213B46F0BC1847DD041A
:1015F00046D4190533D49B0456D5B4F8443007219A
:1016000023F400531B041B0CA4F84430ECE701F056
:101610000701890001F1804101F5B8410B8813F001
:10162000800F0B880ED123F070031B051B0D0B8060
:101630000B8813F4006F18BF06213B46F0BC08BFAF
:101640000521184723F4E14323F070031B041B0C0E
:101650000B8042F080023B46F0BC04211847B4F8EE
:10166000403002219BB243F00803A4F84030B4F8A4
:10167000443023F400631B041B0CA4F84430B3E78C
:10168000B4F84030032123F008031B041B0CA4F81A
:101690004030B4F8443023F480531B041B0CA4F8EE
:1016A00044303B46F0BC184707219DE7005C0040F2
:1016B00030B41E4B1E491C681E4D0422E3B2594033
:1016C000013A05FB01F14FEA1424F7D11A4B194DE9
:1016D0001C680422E3B25940013A05FB01F14FEACC
:1016E0001424F7D1154B134D1C680422E3B2594062
:1016F000013A05FB01F14FEA1424F7D104461C22FC
:1017000021FA02F303F00F030A2B34BF30253725EB
:101710002B44043A24F8023F131DF1D11223032273
:101720004270037030BC1846704700BFE8F7FF1FD7
:10173000C59D1C8193010001ECF7FF1FF0F7FF1F0F
:10174000064BD86910F4000006D0A3F584339B68DB
:10175000002B14BF28200820704700BF0010024053
:1017600010F0800F00F007004FEA800000F1804089
:1017700000F5B840008815BF00F0300000F440507C
:101780001038A0F58050B0FA80F04009704700BFD3
:10179000154B90B9DA6912020ED51A69134942F451
:1017A00000021A61DA6922F40002DA614B6823F45C
:1017B000702343F480234B6070479A690C4942F0D0
:1017C00004029A61DA694FF43C4042F40002DA61A3
:1017D0001A6942F400021A611A6922F400021A61BD
:1017E000A1F84000704700BF00100240000801400F
:1017F000005C004008B5074B044613B10021AFF36D
:101800000080054B1868836A03B19847204600F0B2
:1018100033F800BF00000000901900080E4B70B5AF
:101820001E460E4C0025E41AA410A54204D056F81A
:10183000253098470135F8E700F020F8084B094CAF
:101840001E46E41AA4100025A54204D056F82530FF
:1018500098470135F8E770BD700000207000002047
:10186000700000207400002003460244934202D01E
:1018700003F8011BFAE77047FEE70000F8B500BF68
:10188000F8BC08BC9E467047F8B500BFF8BC08BC61
:101890009E467047040309042E03530054004D0074
:1018A0003300320020005600690072007400750099
:1018B00061006C00200043004F004D0020005000EC
:1018C0006F007200740000001201000202000008A4
:1018D0008304405700010102FE0100009418000833
:1018E000E8180008981800082603420072006500F6
:1018F00065007A006500200045006C00650063000B
:10190000740072006F006E006900630073000000D5
:1019100009024300020100C0320904000001020272
:101920000100052400100105240100010424020027
:101930000524060001070583030800FF09040100D0
:10194000020A0000000705010208000107058202E3
:10195000200001004117000891170008950E0008AB
:10196000C10E0008D10E00085510000885100008AF
:101970000111000815130008DD0D000861170008AB
:101980008115000871150008B11600084300000019
:0819900010000020000000001F
:08199800B0E7FF7F0100000031
:1019A000030000000300000000C201000000080066
:1019B0000000000000000000000000000000000027
:1019C0000000000000000000000000000000000017
:1019D0008C1900080000000000000000000000005A
:1019E00000000000000000000000000000000000F7
:1019F00000000000000000000000000000000000E7
:101A000000000000000000000000000000000000D6
:081A100011010008ED000008BF
:0400000508000000EF
:00000001FF
