:020000040800F2
:1000000000500020590F0008F50E0008FD0E0008F2
:10001000050F00080D0F0008150F00080000000074
:100020000000000000000000000000001D0F00089C
:10003000290F000800000000350F0008410F0008DC
:10004000A10F0008A10F0008A10F0008A10F0008D0
:10005000A10F0008A10F0008A10F0008A10F0008C0
:10006000A10F0008A10F0008A10F0008A10F0008B0
:10007000A10F0008A10F0008A10F0008A10F0008A0
:10008000A10F0008A10F0008A10F0008A10F000890
:10009000A10F0008A10F0008A10F0008A10F000880
:1000A000A10F0008A10F0008A10F0008A10F000870
:1000B000A10F0008A10F0008A10F0008A10F000860
:1000C000A10F0008A10F0008A10F0008A10F000850
:1000D000A10F0008A10F0008A10F0008A10F000840
:1000E000A10F0008A10F0008A10F000800000000E8
:1000F0000000000000000000000000000000000000
:0C01000000000000000000005FF808F1A3
:10010C0010B5054C237833B9044B13B10448AFF345
:10011C0000800123237010BD0C00002000000000A3
:10012C001010000808B5034B1BB103490348AFF38B
:10013C00008008BD00000000100000201010000816
:10014C0080B400AF104BDB680F4A43F08073D36070
:10015C000E4B00225A600D4B1B680C4A43F00103F6
:10016C0013600B4B1B680B4AA2FB03239B0C0A4A24
:10017C001360094B1B68002B02D1074B48221A60F5
:10018C0000BFBD4680BC7047F0ED00E0001000E001
:10019C000400002083DE1B430000002080B485B0E7
:1001AC0000AF78600B4B5B68FB600B4B1A687B688D
:1001BC0002FB03F3BB6000BF064B5A68FB68D31A03
:1001CC00BA689A42F8D800BF00BF1437BD4680BC4D
:1001DC00704700BF001000E00000002080B582B026
:1001EC0000AF786003E04FF47A70FFF7D7FF7B68BD
:1001FC005A1E7A60002BF6D100BF00BF0837BD46EF
:10020C0080BD000080B584B000AF0346FB710023B5
:10021C00FB7322E097F90730002B0CDB134B022207
:10022C001A61AA20FFF7BAFF104B02225A61AA20CA
:10023C00FFF7B4FF0BE00D4B02225A61AA20FFF727
:10024C00ADFF0A4B02221A61AA20FFF7A7FFFB7928
:10025C005B00FB71FB7B0133FB73FB7B072BD9D959
:10026C0000BF00BF1037BD4680BD00BF000C014071
:10027C0080B582B000AF114B02221A610F4B0422E1
:10028C005A610023FB800AE0FB880D4AD35C7B712A
:10029C007B791846FFF7B6FFFB880133FB80FB88A0
:1002AC00B3F5117FF0D3054B02221A61034B0422E4
:1002BC005A6100BF0837BD4680BD00BF0008014031
:1002CC004010000880B582B000AF3E4B4FF40042A6
:1002DC005A613C4B4FF400525A613A4B4FF48052E6
:1002EC001A610120FFF77AFF08237B606623FB70FD
:1002FC00344B4FF480525A611AE097F90330002BBB
:10030C0004DA304B4FF400421A6103E02D4B4FF4EA
:10031C0000425A61FB785B00FB707B68013B7B60A1
:10032C00284B4FF400521A61264B4FF400525A617D
:10033C007B68002BE1D100237B6002E07B680133FA
:10034C007B607B68042BF9DD1E4B4FF480521A61E5
:10035C0008237B609923FB701A4B4FF480525A612F
:10036C001AE097F90330002B04DA164B4FF40042D5
:10037C001A6103E0134B4FF400425A61FB785B00A7
:10038C00FB707B68013B7B600E4B4FF400521A6193
:10039C000C4B4FF400525A617B68002BE1D1094B96
:1003AC004FF480521A61074B4FF400425A61054BCF
:1003BC004FF400525A610220FFF710FF00BF0837BC
:1003CC00BD4680BD000C014080B487B000AF034631
:1003DC000A46FB801346BB800023FB60FB885B0353
:1003EC00FB60BB88FA681344FB603A4B4FF48052B5
:1003FC005A6108237B610323FB741AE097F91330CD
:10040C00002B04DA334B4FF400421A6103E0314BFA
:10041C004FF400425A61FB7C5B00FB747B69013B2F
:10042C007B612C4B4FF400521A612A4B4FF4005253
:10043C005A617B69002BE1D118237B61FB681B029D
:10044C00FB6019E0FB68002B04DA224B4FF40042EE
:10045C001A6103E01F4B4FF400425A61FB685B00CA
:10046C00FB607B69013B7B611A4B4FF400521A61B4
:10047C00184B4FF400525A617B69002BE2D10823D0
:10048C007B610023FB7217E0FB7A5B00FB72114B64
:10049C009B6803F48043002B03D0FB7A43F00103E9
:1004AC00FB727B69013B7B610A4B4FF400521A6172
:1004BC00084B4FF400525A617B69002BE4D1054B79
:1004CC004FF480521A61FB7A18461C37BD4680BC2B
:1004DC00704700BF000C014080B485B000AF0346EC
:1004EC00FB710023FB81FB791BB2DB001BB203F019
:1004FC0008031AB2B7F90E3013431BB2FB81FB7918
:10050C001BB21B011BB203F020031AB2B7F90E3059
:10051C0013431BB2FB81FB791BB29B001BB203F094
:10052C0010031AB2B7F90E3013431BB2FB81FB79DF
:10053C001BB2DB001BB203F040031AB2B7F90E304A
:10054C0013431BB2FB81FB791BB2DB001BB203F024
:10055C0080031AB2B7F90E3013431BB2FB81FB793F
:10056C001BB2DB001BB203F480731AB2B7F90E3066
:10057C0013431BB2FB81FB791BB25B011BB203F46F
:10058C0000631AB2B7F90E3013431BB2FB81FB792F
:10059C001BB25B011BB203F480531AB2B7F90E30D5
:1005AC0013431BB2FB81FB8943F00203FB81044A1A
:1005BC00FB89D36000BF1437BD4680BC704700BFB9
:1005CC000008014080B500AFFFF7BAFD0120FFF72E
:1005DC0005FEFFF777FE504B4FF400521A614F4B5C
:1005EC0002221A614D4B04221A614D4B00221A70E3
:1005FC0036E14A4B9B6803F00103002B01D1FFF756
:10060C0037FE484B00221A70474B9B689AB2474BF7
:10061C001A80464B1B885B0ADBB203F00103DAB28B
:10062C00404B1B781343DAB23E4B1A703F4B1B887E
:10063C00DB09DBB203F00203DAB23A4B1B7813434B
:10064C00DAB2384B1A70394B1B885B09DBB203F0FA
:10065C000403DAB2334B1B781343DAB2314B1A7002
:10066C00324B1B88DB08DBB203F00803DAB22D4BEC
:10067C001B781343DAB22B4B1A702C4B1B885B087C
:10068C00DBB203F01003DAB2264B1B781343DAB259
:10069C00244B1A70254B1B885BB25B005BB203F0DA
:1006AC0020035AB21F4B1B785BB213435BB2DAB216
:1006BC001C4B1A701D4B1B881B09DBB203F040034B
:1006CC00DAB2184B1B781343DAB2164B1A70174B6D
:1006DC001B881B09DBB223F07F03DAB2114B1B78AA
:1006EC001343DAB20F4B1A700E4B1B78AA2B03D1A3
:1006FC000B4B01221A701EE00A4B1B78552B17D19D
:10070C00074B1B78012B03D1054B02221A7012E008
:10071C00034B00221A700EE000100140000801404B
:10072C003900002028000020000C01402A00002085
:10073C00964B00221A70964B1B781A46954B9A5C76
:10074C00954B1A70954B00221A80934B1B781BB259
:10075C00DB001BB203F008031AB2904B1B881BB2D0
:10076C0013431BB29AB28D4B1A808B4B1B781BB266
:10077C001B011BB203F020031AB2884B1B881BB25F
:10078C0013431BB29AB2854B1A80834B1B781BB256
:10079C009B001BB203F010031AB2804B1B881BB2D8
:1007AC0013431BB29AB27D4B1A807B4B1B781BB246
:1007BC00DB001BB203F040031AB2784B1B881BB250
:1007CC0013431BB29AB2754B1A80734B1B781BB236
:1007DC00DB001BB203F080031AB2704B1B881BB2F8
:1007EC0013431BB29AB26D4B1A806B4B1B781BB226
:1007FC00DB001BB203F480731AB2684B1B881BB26C
:10080C0013431BB29AB2654B1A80634B1B781BB215
:10081C005B011BB203F400631AB2604B1B881BB262
:10082C0013431BB29AB25D4B1A805B4B1B781BB205
:10083C005B011BB203F480531AB2584B1B881BB2DA
:10084C0013431BB29AB2554B1A80544B1B8843F07E
:10085C0004039AB2514B1A80504B1A88504BDA60F1
:10086C004A4B1B78022B7FF4C4AE4E4B4FF4005214
:10087C001A614B4B02221A61494B04225A614A4BB2
:10088C0000221A70494B00221A8000BF484B9B680B
:10089C009BB203F00103002BF8D000BF444B9B68C4
:1008AC009BB203F00103002BF8D1394B00221A70D4
:1008BC003F4B9B689AB23F4B1A803E4B1B885B0A9E
:1008CC00DBB203F00103DAB2314B1B781343DAB21B
:1008DC002F4B1A70374B1B88DB09DBB203F002037A
:1008EC00DAB22B4B1B781343DAB2294B1A70314B0B
:1008FC001B885B09DBB203F00403DAB2244B1B78D0
:10090C001343DAB2224B1A702A4B1B88DB08DBB27A
:10091C0003F00803DAB21E4B1B781343DAB21C4BFC
:10092C001A70244B1B885B08DBB203F01003DAB29D
:10093C00174B1B781343DAB2154B1A701D4B1B88DF
:10094C005BB25B005BB203F020035AB2104B1B7816
:10095C005BB213435BB2DAB20D4B1A70154B1B88AA
:10096C001B09DBB203F04003DAB2094B1B781343CB
:10097C00DAB2074B1A700F4B1B881B09DBB223F042
:10098C007F03DAB2024B1B78134315E039000020C9
:10099C0028000020101800082C0000202E00002039
:1009AC0000080140001001403800002036000020F3
:1009BC00000C01402A000020DAB29A4B1A70994BB5
:1009CC001A78994B1A7000BF984B9B689BB203F036
:1009DC000103002BF8D000BF944B9B689BB203F033
:1009EC000103002BF8D18F4B00221A708F4B9B68A0
:1009FC009AB28F4B1A808E4B1B885B0ADBB203F0CA
:100A0C000103DAB2874B1B781343DAB2854B1A70A9
:100A1C00874B1B88DB09DBB203F00203DAB2814B94
:100A2C001B781343DAB27F4B1A70814B1B885B091E
:100A3C00DBB203F00403DAB27A4B1B781343DAB25D
:100A4C00784B1A707A4B1B88DB08DBB203F0080377
:100A5C00DAB2744B1B781343DAB2724B1A70744BC4
:100A6C001B885B08DBB203F01003DAB26D4B1B780A
:100A7C001343DAB26B4B1A706D4B1B885BB25B0085
:100A8C005BB203F020035AB2664B1B785BB2134384
:100A9C005BB2DAB2634B1A70654B1B881B09DBB275
:100AAC0003F04003DAB25F4B1B781343DAB25D4BB1
:100ABC001A705F4B1B881B09DBB223F07F03DAB281
:100ACC00584B1B781343DAB2564B1A70554B1A78A5
:100ADC00584B1A70544B1B781B029BB2554A127818
:100AEC0013449AB2544B1A80CEE000BF4F4B9B6814
:100AFC009BB203F00103002BF8D000BF4B4B9B685B
:100B0C009BB203F00103002BF8D1464B00221A7064
:100B1C00464B9B689AB2464B1A80454B1B885B0A26
:100B2C00DBB203F00103DAB23E4B1B781343DAB2AB
:100B3C003C4B1A703E4B1B88DB09DBB203F0020303
:100B4C00DAB2384B1B781343DAB2364B1A70384B87
:100B5C001B885B09DBB203F00403DAB2314B1B7860
:100B6C001343DAB22F4B1A70314B1B88DB08DBB204
:100B7C0003F00803DAB22B4B1B781343DAB2294B80
:100B8C001A702B4B1B885B08DBB203F01003DAB234
:100B9C00244B1B781343DAB2224B1A70244B1B885C
:100BAC005BB25B005BB203F020035AB21D4B1B78A7
:100BBC005BB213435BB2DAB21A4B1A701C4B1B8834
:100BCC001B09DBB203F04003DAB2164B1B7813435C
:100BDC00DAB2144B1A70164B1B881B09DBB223F0CC
:100BEC007F03DAB20F4B1B781343DAB20D4B1A703A
:100BFC00114B1B88114A128811461846FFF7E4FB6B
:100C0C0003461A460E4B1A700D4B1B781846FFF70D
:100C1C0063FC044B1B78812B16D10A4B01221A70F2
:100C2C0021E000BF2800002030000020000C014013
:100C3C002A00002031000020320000203600002065
:100C4C003400002038000020184B1B78662B07D18D
:100C5C00174B1B78012B03D1154B02221A7002E0A3
:100C6C00134B00221A70134B1B8801339AB2114B91
:100C7C001A800F4B1B78022B06D10F4B02225A61A4
:100C8C000D4B04221A61B0E40A4B1B88B3F5604F7C
:100C9C007FF42BAF094B4FF400525A61064B0222E2
:100CAC001A61054B04221A6100BFF3E728000020EB
:100CBC0038000020360000200008014000100140E0
:100CCC0080B487B000AFF860B9607A60BB68072B5E
:100CDC0001D8FB6801E0FB6804337B61BB6803F05F
:100CEC0007039B003B617B691A680F213B6901FA82
:100CFC0003F3DB431A4079683B6901FA03F31A43A7
:100D0C007B691A6000BF1C37BD4680BC704780B53C
:100D1C0000AF00F007F800F061F8FFF753FC00BFDC
:100D2C00FDE7000080B400AF284B14221A60284B5A
:100D3C001B68274A43F48033136000BF244B1B68A5
:100D4C0003F40033002BF9D0214B5B68204A23F4C9
:100D5C007C1353601E4B5B681D4A43F4E8135360CD
:100D6C001B4B5B681A4A23F47F5323F03003536008
:100D7C00174B5B68164A43F480635360144B1B6833
:100D8C00134A43F08073136000BF114B1B6803F0D0
:100D9C000073002BF9D00E4B5B680D4A23F0030354
:100DAC0053600B4B5B680A4A43F00203536000BF6D
:100DBC00074B5B6803F00C03082BF9D1054B064A73
:100DCC001A6000BFBD4680BC704700BF00200240C7
:100DDC00001002400400002000A24A0480B588B034
:100DEC0000AF394B9B69384A43F01D039361374B75
:100DFC005B6823F0E063354A43F000735360344A78
:100E0C0007F1100307CA03C31A800023FB610CE02F
:100E1C0007F11002FB6913441B78032219462D4875
:100E2C00FFF74EFFFB690133FB61FB69092BEFD91F
:100E3C00042200212748FFF743FF274BFB600023C8
:100E4C00FB610CE007F10C02FB6913441B780322D5
:100E5C0019462248FFF734FFFB690133FB61FB693C
:100E6C00032BEFD91E4A3B4607CA03C31A70002353
:100E7C00FB6118E03A46FB6913441B7808221946BB
:100E8C001648FFF71DFF154BDA683946FB690B4412
:100E9C001B78194601238B40DB4310491340CB6070
:100EAC00FB690133FB61FB69082BE3D904220E219A
:100EBC000A48FFF705FF03220D210A48FFF700FF40
:100ECC0000BF2037BD4680BD00100240000001402D
:100EDC002810000800080140010C0D0F000C014007
:100EEC00341000080010014080B400AF00BFFDE7D3
:100EFC0080B400AF00BFFDE780B400AF00BFFDE7DA
:100F0C0080B400AF00BFFDE780B400AF00BFFDE7C9
:100F1C0080B400AF00BFBD4680BC704780B400AF4A
:100F2C0000BFBD4680BC704780B400AF00BFBD465B
:100F3C0080BC704780B500AF00F02EF800BF80BDBC
:100F4C0080B400AF00BFBD4680BC7047FFF7F8FF10
:100F5C000B480C490C4A002302E0D458C45004330B
:100F6C00C4188C42F9D3094A094C002301E01360E0
:100F7C000432A242FBD300F021F8FFF7C8FE704701
:100F8C00000000200C000020181900080C000020A4
:100F9C0040000020FEE7000080B400AF054B1B783A
:100FAC001A46054B1B681344034A136000BFBD4629
:100FBC0080BC7047080000203C00002070B5002663
:100FCC000C4D0D4C641BA410A64209D100F01AF86C
:100FDC0000260A4D0A4C641BA410A64205D170BD14
:100FEC0055F8043B98470136EEE755F8043B984713
:100FFC000136F2E710190008101900081019000842
:10100C0014190008F8B500BFF8BC08BC9E46704720
:0C101C00F8B500BFF8BC08BC9E46704749
:1010280001020304050607080B0C0000000405066E
:101038000708090A0B00000000000000000000007B
:101048000000000000000000000000000000000098
:10105800005555555555555555555555555555558D
:101068005555555555555555555500000000000026
:101078000000000000000000000000000000000068
:101088000000005555555555555555555555555507
:10109800555555555555555555555555000000004C
:1010A8000000000000000000000000000000000038
:1010B8000000000000555555555555555555555581
:1010C8005555555555555555555555555555000072
:1010D8000000000000000000000000000000000008
:1010E80000000000000000555555555555555555FB
:1010F8005555555555555555555555555555555598
:1011080000000000000000000000000000000000D7
:1011180055555555E60000000020202020202020AD
:1011280020202020202020202020202020202020B7
:10113800202000000101012300000000E68023F3C5
:101148003E82D304018000111A012100801A77130E
:101158002305C20E01C30080002100007DD307D300
:1011680000000000E681237CD305DB0677237CFEA4
:1011780080C20380C30000000000000000000000DF
:10118800000000000000007500000000E682230057
:101198000000000000000000000000000000000047
:1011A800000000000000000000000000000000A592
:1011B80000000000E683230000000000000000009B
:1011C8000000000000000000000000000000000017
:1011D80000000000000000A600000000E6842300D4
:1011E80000000000000000000000000000000000F7
:1011F800000000000000000000000000000000A740
:1012080000000000E6852300000000000000000048
:1012180000000000000000000000000000000000C6
:1012280000000000000000A800000000E68623007F
:1012380000000000000000000000000000000000A6
:10124800000000000000000000000000000000A9ED
:1012580000000000E68723000000000000000000F6
:101268000000000000000000000000000000000076
:1012780000000000000000AA0000000000000000BC
:101288000000000000000000000000000000000056
:101298000000000000000000000000000000000046
:1012A8000000000000000000000000000000000036
:1012B8000000000000000000000000000000000026
:101808000000000000000000F30EFF111500210089
:10181800E01A7713230DC20900C300E0003100E885
:101828003E82D3043E00D3053EAAD30713131313F5
:101838003E55D307131313133E00D3073E10D305A9
:10184800131313133E00D305131313133E00D307CA
:101858003E10D305131313133E00D30513131313AC
:101868001313131313132100003E10D3051313137E
:10187800133E00D305131313131313131313131366
:1018880013131313DB0677237CFE80C24CE03E81E2
:10189800D30713131313133E10D305131313131382
:1018A8003E00D30513131313131313131313131336
:1018B8001313133E66D3073E10D3051313131313E4
:1018C8001313131313133E00D305C30001000000C4
:1018D8000000000000000000000000000000000000
:1018E80000000000000000000000000000000000F0
:1018F80000000000000000000000000000000000E0
:0819080000000000000055AAD8
:041910003101000899
:041914000D010008B9
:0C1918004800000000127A0001000000EE
:0400000508000F5987
:00000001FF
